{
  "contractName": "UserContract",
  "abi": [
    {
      "constant": false,
      "inputs": [
        {
          "name": "email",
          "type": "string"
        },
        {
          "name": "carrera",
          "type": "string"
        },
        {
          "name": "telefono",
          "type": "string"
        },
        {
          "name": "estado",
          "type": "string"
        },
        {
          "name": "mac",
          "type": "string"
        }
      ],
      "name": "join",
      "outputs": [],
      "payable": false,
      "stateMutability": "nonpayable",
      "type": "function"
    },
    {
      "constant": false,
      "inputs": [
        {
          "name": "email",
          "type": "string"
        },
        {
          "name": "carrera",
          "type": "string"
        },
        {
          "name": "telefono",
          "type": "string"
        },
        {
          "name": "estado",
          "type": "string"
        },
        {
          "name": "mac",
          "type": "string"
        }
      ],
      "name": "update",
      "outputs": [],
      "payable": false,
      "stateMutability": "nonpayable",
      "type": "function"
    },
    {
      "constant": true,
      "inputs": [
        {
          "name": "addr",
          "type": "address"
        }
      ],
      "name": "getUser",
      "outputs": [
        {
          "name": "",
          "type": "string"
        },
        {
          "name": "",
          "type": "string"
        },
        {
          "name": "",
          "type": "string"
        },
        {
          "name": "",
          "type": "string"
        },
        {
          "name": "",
          "type": "string"
        }
      ],
      "payable": false,
      "stateMutability": "view",
      "type": "function"
    },
    {
      "constant": true,
      "inputs": [],
      "name": "totalUsers",
      "outputs": [
        {
          "name": "",
          "type": "uint256"
        }
      ],
      "payable": false,
      "stateMutability": "view",
      "type": "function"
    }
  ],
  "bytecode": "0x608060405234801561001057600080fd5b50610fab806100206000396000f300608060405260043610610062576000357c0100000000000000000000000000000000000000000000000000000000900463ffffffff1680632dca76c1146100675780636f77926b146101e8578063bff1f9e114610454578063e1f1b77f1461047f575b600080fd5b34801561007357600080fd5b506101e6600480360381019080803590602001908201803590602001908080601f0160208091040260200160405190810160405280939291908181526020018383808284378201915050505050509192919290803590602001908201803590602001908080601f0160208091040260200160405190810160405280939291908181526020018383808284378201915050505050509192919290803590602001908201803590602001908080601f0160208091040260200160405190810160405280939291908181526020018383808284378201915050505050509192919290803590602001908201803590602001908080601f0160208091040260200160405190810160405280939291908181526020018383808284378201915050505050509192919290803590602001908201803590602001908080601f0160208091040260200160405190810160405280939291908181526020018383808284378201915050505050509192919290505050610600565b005b3480156101f457600080fd5b50610229600480360381019080803573ffffffffffffffffffffffffffffffffffffffff16906020019092919050505061096f565b60405180806020018060200180602001806020018060200186810386528b818151815260200191508051906020019080838360005b8381101561027957808201518184015260208101905061025e565b50505050905090810190601f1680156102a65780820380516001836020036101000a031916815260200191505b5086810385528a818151815260200191508051906020019080838360005b838110156102df5780820151818401526020810190506102c4565b50505050905090810190601f16801561030c5780820380516001836020036101000a031916815260200191505b50868103845289818151815260200191508051906020019080838360005b8381101561034557808201518184015260208101905061032a565b50505050905090810190601f1680156103725780820380516001836020036101000a031916815260200191505b50868103835288818151815260200191508051906020019080838360005b838110156103ab578082015181840152602081019050610390565b50505050905090810190601f1680156103d85780820380516001836020036101000a031916815260200191505b50868103825287818151815260200191508051906020019080838360005b838110156104115780820151818401526020810190506103f6565b50505050905090810190601f16801561043e5780820380516001836020036101000a031916815260200191505b509a505050505050505050505060405180910390f35b34801561046057600080fd5b50610469610d45565b6040518082815260200191505060405180910390f35b34801561048b57600080fd5b506105fe600480360381019080803590602001908201803590602001908080601f0160208091040260200160405190810160405280939291908181526020018383808284378201915050505050509192919290803590602001908201803590602001908080601f0160208091040260200160405190810160405280939291908181526020018383808284378201915050505050509192919290803590602001908201803590602001908080601f0160208091040260200160405190810160405280939291908181526020018383808284378201915050505050509192919290803590602001908201803590602001908080601f0160208091040260200160405190810160405280939291908181526020018383808284378201915050505050509192919290803590602001908201803590602001908080601f0160208091040260200160405190810160405280939291908181526020018383808284378201915050505050509192919290505050610d52565b005b600061060b33610e54565b151561061657600080fd5b6000803373ffffffffffffffffffffffffffffffffffffffff1673ffffffffffffffffffffffffffffffffffffffff1681526020019081526020016000209050604051806000019050604051809103902060001916866040518082805190602001908083835b6020831015156106a1578051825260208201915060208101905060208303925061067c565b6001836020036101000a0380198251168184511680821785525050505050509050019150506040518091039020600019161415156106f357858160000190805190602001906106f1929190610eaa565b505b604051806000019050604051809103902060001916866040518082805190602001908083835b60208310151561073e5780518252602082019150602081019050602083039250610719565b6001836020036101000a038019825116818451168082178552505050505050905001915050604051809103902060001916141515610790578481600101908051906020019061078e929190610eaa565b505b604051806000019050604051809103902060001916866040518082805190602001908083835b6020831015156107db57805182526020820191506020810190506020830392506107b6565b6001836020036101000a03801982511681845116808217855250505050505090500191505060405180910390206000191614151561082d578381600201908051906020019061082b929190610eaa565b505b604051806000019050604051809103902060001916866040518082805190602001908083835b6020831015156108785780518252602082019150602081019050602083039250610853565b6001836020036101000a0380198251168184511680821785525050505050509050019150506040518091039020600019161415156108ca57828160030190805190602001906108c8929190610eaa565b505b604051806000019050604051809103902060001916866040518082805190602001908083835b60208310151561091557805182526020820191506020810190506020830392506108f0565b6001836020036101000a0380198251168184511680821785525050505050509050019150506040518091039020600019161415156109675781816004019080519060200190610965929190610eaa565b505b505050505050565b606080606080606061097f610f2a565b61098833610e54565b151561099357600080fd5b6000808873ffffffffffffffffffffffffffffffffffffffff1673ffffffffffffffffffffffffffffffffffffffff16815260200190815260200160002060a06040519081016040529081600082018054600181600116156101000203166002900480601f016020809104026020016040519081016040528092919081815260200182805460018160011615610100020316600290048015610a765780601f10610a4b57610100808354040283529160200191610a76565b820191906000526020600020905b815481529060010190602001808311610a5957829003601f168201915b50505050508152602001600182018054600181600116156101000203166002900480601f016020809104026020016040519081016040528092919081815260200182805460018160011615610100020316600290048015610b185780601f10610aed57610100808354040283529160200191610b18565b820191906000526020600020905b815481529060010190602001808311610afb57829003601f168201915b50505050508152602001600282018054600181600116156101000203166002900480601f016020809104026020016040519081016040528092919081815260200182805460018160011615610100020316600290048015610bba5780601f10610b8f57610100808354040283529160200191610bba565b820191906000526020600020905b815481529060010190602001808311610b9d57829003601f168201915b50505050508152602001600382018054600181600116156101000203166002900480601f016020809104026020016040519081016040528092919081815260200182805460018160011615610100020316600290048015610c5c5780601f10610c3157610100808354040283529160200191610c5c565b820191906000526020600020905b815481529060010190602001808311610c3f57829003601f168201915b50505050508152602001600482018054600181600116156101000203166002900480601f016020809104026020016040519081016040528092919081815260200182805460018160011615610100020316600290048015610cfe5780601f10610cd357610100808354040283529160200191610cfe565b820191906000526020600020905b815481529060010190602001808311610ce157829003601f168201915b505050505081525050905080600001518160400151826020015183606001518460800151849450839350829250819150809050955095509550955095505091939590929450565b6000600380549050905090565b610d5b33610e54565b151515610d6757600080fd5b60a060405190810160405280868152602001858152602001848152602001838152602001828152505060018060003373ffffffffffffffffffffffffffffffffffffffff1673ffffffffffffffffffffffffffffffffffffffff16815260200190815260200160002060006101000a81548160ff02191690831515021790555060033390806001815401808255809150509060018203906000526020600020016000909192909190916101000a81548173ffffffffffffffffffffffffffffffffffffffff021916908373ffffffffffffffffffffffffffffffffffffffff160217905550505050505050565b6000600160008373ffffffffffffffffffffffffffffffffffffffff1673ffffffffffffffffffffffffffffffffffffffff16815260200190815260200160002060009054906101000a900460ff169050919050565b828054600181600116156101000203166002900490600052602060002090601f016020900481019282601f10610eeb57805160ff1916838001178555610f19565b82800160010185558215610f19579182015b82811115610f18578251825591602001919060010190610efd565b5b509050610f269190610f5a565b5090565b60a06040519081016040528060608152602001606081526020016060815260200160608152602001606081525090565b610f7c91905b80821115610f78576000816000905550600101610f60565b5090565b905600a165627a7a72305820b8eaa96f3cc1201ca0ab4b6c2bc125a6e28e303657eedaac933d2970b4529a840029",
  "source": "pragma solidity >=0.4.24;\r\n\r\ncontract UserContract {\r\n    struct User{\r\n        string email;\r\n        string carrera;\r\n        string telefono;\r\n        string estado;\r\n        string mac;\r\n    }\r\n    struct Estado{\r\n        string estado;\r\n        string fecha;\r\n    }\r\n\r\n    mapping(address => User) private users;\r\n    mapping(address => bool) private joinedUsers;\r\n    mapping(address => Estado[]) private estados;\r\n    address[] total;\r\n\r\n    function join(string memory email, string memory carrera, string memory telefono, string memory estado, string memory mac) public{\r\n        require(!userJoined(msg.sender));\r\n        /* User storage user = users[msg.sender];\r\n        user.email=_email;\r\n        user.carrera=_carrera;\r\n        user.telefono=_telefono;\r\n        user.estado=_estado;\r\n        user.mac=_mac; */\r\n        User(email, carrera, telefono, estado, mac);\r\n        joinedUsers[msg.sender]= true;\r\n        total.push(msg.sender);\r\n\r\n    }\r\n    function update(string memory email, string memory carrera, string memory telefono, string memory estado, string memory mac) public{\r\n        require(userJoined(msg.sender));\r\n        User storage user = users[msg.sender];\r\n        if(keccak256(email) != keccak256(\"\")){\r\n            user.email=email;\r\n        }\r\n        if(keccak256(email) != keccak256(\"\")){\r\n            user.carrera=carrera;\r\n        }\r\n        if(keccak256(email) != keccak256(\"\")){\r\n            user.telefono=telefono;\r\n        }\r\n        if(keccak256(email) != keccak256(\"\")){\r\n            user.estado=estado;\r\n        }\r\n        if(keccak256(email) != keccak256(\"\")){\r\n            user.mac=mac;\r\n        }\r\n    }\r\n\r\n    function getUser(address addr) public view returns (string memory, string memory, string memory, string memory, string memory){\r\n        require(userJoined(msg.sender));\r\n        User memory user = users[addr];\r\n        return(user.email, user.telefono, user.carrera, user.estado, user.mac);\r\n\r\n    }\r\n\r\n    function userJoined(address addr) private view returns(bool){\r\n        return joinedUsers[addr];\r\n    }\r\n    function totalUsers() public view returns (uint){\r\n        return total.length;\r\n    }\r\n}\r\n",
  "sourcePath": "C:/Users/pedro/OneDrive/Documents/GitHub/test-block/contracts/Migrations.sol",
  "compiler": {
    "name": "solc",
    "version": "0.4.24+commit.e67f0147.Emscripten.clang"
  },
  "schemaVersion": "3.3.2",
  "updatedAt": "2020-12-06T19:52:59.885Z",
  "devdoc": {
    "methods": {}
  },
  "userdoc": {
    "methods": {}
  }
}