{
  "contractName": "UserContract",
  "abi": [
    {
      "constant": false,
      "inputs": [
        {
          "name": "email",
          "type": "string"
        },
        {
          "name": "carrera",
          "type": "string"
        },
        {
          "name": "telefono",
          "type": "string"
        },
        {
          "name": "estado",
          "type": "string"
        },
        {
          "name": "mac",
          "type": "string"
        }
      ],
      "name": "join",
      "outputs": [],
      "payable": false,
      "stateMutability": "nonpayable",
      "type": "function"
    },
    {
      "constant": false,
      "inputs": [
        {
          "name": "email",
          "type": "string"
        },
        {
          "name": "carrera",
          "type": "string"
        },
        {
          "name": "telefono",
          "type": "string"
        },
        {
          "name": "estado",
          "type": "string"
        },
        {
          "name": "mac",
          "type": "string"
        }
      ],
      "name": "update",
      "outputs": [],
      "payable": false,
      "stateMutability": "nonpayable",
      "type": "function"
    },
    {
      "constant": true,
      "inputs": [
        {
          "name": "addr",
          "type": "address"
        }
      ],
      "name": "getUser",
      "outputs": [
        {
          "name": "",
          "type": "string"
        },
        {
          "name": "",
          "type": "string"
        },
        {
          "name": "",
          "type": "string"
        },
        {
          "name": "",
          "type": "string"
        },
        {
          "name": "",
          "type": "string"
        }
      ],
      "payable": false,
      "stateMutability": "view",
      "type": "function"
    },
    {
      "constant": true,
      "inputs": [],
      "name": "totalUsers",
      "outputs": [
        {
          "name": "",
          "type": "uint256"
        }
      ],
      "payable": false,
      "stateMutability": "view",
      "type": "function"
    }
  ],
  "bytecode": "0x608060405260206040519081016040528060008152506000908051906020019061002a92919061003d565b5034801561003757600080fd5b506100e2565b828054600181600116156101000203166002900490600052602060002090601f016020900481019282601f1061007e57805160ff19168380011785556100ac565b828001600101855582156100ac579182015b828111156100ab578251825591602001919060010190610090565b5b5090506100b991906100bd565b5090565b6100df91905b808211156100db5760008160009055506001016100c3565b5090565b90565b610e71806100f16000396000f300608060405260043610610062576000357c0100000000000000000000000000000000000000000000000000000000900463ffffffff1680632dca76c1146100675780636f77926b146101e8578063bff1f9e114610454578063e1f1b77f1461047f575b600080fd5b34801561007357600080fd5b506101e6600480360381019080803590602001908201803590602001908080601f0160208091040260200160405190810160405280939291908181526020018383808284378201915050505050509192919290803590602001908201803590602001908080601f0160208091040260200160405190810160405280939291908181526020018383808284378201915050505050509192919290803590602001908201803590602001908080601f0160208091040260200160405190810160405280939291908181526020018383808284378201915050505050509192919290803590602001908201803590602001908080601f0160208091040260200160405190810160405280939291908181526020018383808284378201915050505050509192919290803590602001908201803590602001908080601f0160208091040260200160405190810160405280939291908181526020018383808284378201915050505050509192919290505050610600565b005b3480156101f457600080fd5b50610229600480360381019080803573ffffffffffffffffffffffffffffffffffffffff1690602001909291905050506106dc565b60405180806020018060200180602001806020018060200186810386528b818151815260200191508051906020019080838360005b8381101561027957808201518184015260208101905061025e565b50505050905090810190601f1680156102a65780820380516001836020036101000a031916815260200191505b5086810385528a818151815260200191508051906020019080838360005b838110156102df5780820151818401526020810190506102c4565b50505050905090810190601f16801561030c5780820380516001836020036101000a031916815260200191505b50868103845289818151815260200191508051906020019080838360005b8381101561034557808201518184015260208101905061032a565b50505050905090810190601f1680156103725780820380516001836020036101000a031916815260200191505b50868103835288818151815260200191508051906020019080838360005b838110156103ab578082015181840152602081019050610390565b50505050905090810190601f1680156103d85780820380516001836020036101000a031916815260200191505b50868103825287818151815260200191508051906020019080838360005b838110156104115780820151818401526020810190506103f6565b50505050905090810190601f16801561043e5780820380516001836020036101000a031916815260200191505b509a505050505050505050505060405180910390f35b34801561046057600080fd5b50610469610ab3565b6040518082815260200191505060405180910390f35b34801561048b57600080fd5b506105fe600480360381019080803590602001908201803590602001908080601f0160208091040260200160405190810160405280939291908181526020018383808284378201915050505050509192919290803590602001908201803590602001908080601f0160208091040260200160405190810160405280939291908181526020018383808284378201915050505050509192919290803590602001908201803590602001908080601f0160208091040260200160405190810160405280939291908181526020018383808284378201915050505050509192919290803590602001908201803590602001908080601f0160208091040260200160405190810160405280939291908181526020018383808284378201915050505050509192919290803590602001908201803590602001908080601f0160208091040260200160405190810160405280939291908181526020018383808284378201915050505050509192919290505050610ac0565b005b600061060b33610c93565b151561061657600080fd5b600160003373ffffffffffffffffffffffffffffffffffffffff1673ffffffffffffffffffffffffffffffffffffffff16815260200190815260200160002090508581600001908051906020019061066f929190610ce9565b5084816001019080519060200190610688929190610ce9565b50838160020190805190602001906106a1929190610ce9565b50828160030190805190602001906106ba929190610ce9565b50818160040190805190602001906106d3929190610ce9565b50505050505050565b60608060608060606106ec610d69565b6106f533610c93565b151561070057600080fd5b600160008873ffffffffffffffffffffffffffffffffffffffff1673ffffffffffffffffffffffffffffffffffffffff16815260200190815260200160002060a06040519081016040529081600082018054600181600116156101000203166002900480601f0160208091040260200160405190810160405280929190818152602001828054600181600116156101000203166002900480156107e45780601f106107b9576101008083540402835291602001916107e4565b820191906000526020600020905b8154815290600101906020018083116107c757829003601f168201915b50505050508152602001600182018054600181600116156101000203166002900480601f0160208091040260200160405190810160405280929190818152602001828054600181600116156101000203166002900480156108865780601f1061085b57610100808354040283529160200191610886565b820191906000526020600020905b81548152906001019060200180831161086957829003601f168201915b50505050508152602001600282018054600181600116156101000203166002900480601f0160208091040260200160405190810160405280929190818152602001828054600181600116156101000203166002900480156109285780601f106108fd57610100808354040283529160200191610928565b820191906000526020600020905b81548152906001019060200180831161090b57829003601f168201915b50505050508152602001600382018054600181600116156101000203166002900480601f0160208091040260200160405190810160405280929190818152602001828054600181600116156101000203166002900480156109ca5780601f1061099f576101008083540402835291602001916109ca565b820191906000526020600020905b8154815290600101906020018083116109ad57829003601f168201915b50505050508152602001600482018054600181600116156101000203166002900480601f016020809104026020016040519081016040528092919081815260200182805460018160011615610100020316600290048015610a6c5780601f10610a4157610100808354040283529160200191610a6c565b820191906000526020600020905b815481529060010190602001808311610a4f57829003601f168201915b505050505081525050905080600001518160400151826020015183606001518460800151849450839350829250819150809050955095509550955095505091939590929450565b6000600480549050905090565b6000610acb33610c93565b151515610ad757600080fd5b600160003373ffffffffffffffffffffffffffffffffffffffff1673ffffffffffffffffffffffffffffffffffffffff1681526020019081526020016000209050600886511115610b405785816000019080519060200190610b3a929190610ce9565b50610b69565b80600001816000019080546001816001161561010002031660029004610b67929190610d99565b505b84816001019080519060200190610b81929190610ce9565b5083816002019080519060200190610b9a929190610ce9565b5082816003019080519060200190610bb3929190610ce9565b5081816004019080519060200190610bcc929190610ce9565b506001600260003373ffffffffffffffffffffffffffffffffffffffff1673ffffffffffffffffffffffffffffffffffffffff16815260200190815260200160002060006101000a81548160ff02191690831515021790555060043390806001815401808255809150509060018203906000526020600020016000909192909190916101000a81548173ffffffffffffffffffffffffffffffffffffffff021916908373ffffffffffffffffffffffffffffffffffffffff16021790555050505050505050565b6000600260008373ffffffffffffffffffffffffffffffffffffffff1673ffffffffffffffffffffffffffffffffffffffff16815260200190815260200160002060009054906101000a900460ff169050919050565b828054600181600116156101000203166002900490600052602060002090601f016020900481019282601f10610d2a57805160ff1916838001178555610d58565b82800160010185558215610d58579182015b82811115610d57578251825591602001919060010190610d3c565b5b509050610d659190610e20565b5090565b60a06040519081016040528060608152602001606081526020016060815260200160608152602001606081525090565b828054600181600116156101000203166002900490600052602060002090601f016020900481019282601f10610dd25780548555610e0f565b82800160010185558215610e0f57600052602060002091601f016020900482015b82811115610e0e578254825591600101919060010190610df3565b5b509050610e1c9190610e20565b5090565b610e4291905b80821115610e3e576000816000905550600101610e26565b5090565b905600a165627a7a72305820abae1138dacd897bdb0b248389f4842d61fb783cd93873d021a0ee8c8f9a357d0029",
  "source": "pragma solidity >=0.4.24;\n\ncontract UserContract {\n    struct User{\n        string email;\n        string carrera;\n        string telefono;\n        string estado;\n        string mac;\n    }\n\n    \n    string a = \"\";\n    mapping(address => User) private users;\n    mapping(address => bool) private joinedUsers;\n    mapping(string => bool) private abc;\n    address[] total;\n\n    function join(string email, string carrera, string telefono, string estado, string mac) public{\n        require(!userJoined(msg.sender));\n        User storage user = users[msg.sender];\n        if(bytes(email).length > 8){\n            user.email=email;\n        }\n        else{\n            user.email=user.email;\n        }\n        \n        user.carrera=carrera;\n        user.telefono=telefono;\n        user.estado=estado;\n        user.mac=mac;\n\n        joinedUsers[msg.sender]= true;\n        total.push(msg.sender);\n\n    }\n    function update(string email, string carrera, string telefono, string estado, string mac) public{\n        require(userJoined(msg.sender));\n        User storage user = users[msg.sender];\n        user.email=email;\n        user.carrera=carrera;\n        user.telefono=telefono;\n        user.estado=estado;\n        user.mac=mac;\n    }\n\n    function getUser(address addr) public view returns (string,string,string,string,string){\n        require(userJoined(msg.sender));\n        User memory user = users[addr];\n        return(user.email, user.telefono, user.carrera, user.estado, user.mac);\n\n    }\n\n    function userJoined(address addr) private view returns(bool){\n        return joinedUsers[addr];\n    }\n    function totalUsers() public view returns (uint){\n        return total.length;\n    }\n}\n",
  "sourcePath": "C:/Users/JVC/Desktop/test/contracts/Migrations.sol",
  "compiler": {
    "name": "solc",
    "version": "0.4.24+commit.e67f0147.Emscripten.clang"
  },
  "schemaVersion": "3.3.2",
  "updatedAt": "2020-12-04T21:21:09.289Z",
  "devdoc": {
    "methods": {}
  },
  "userdoc": {
    "methods": {}
  }
}